:1000000013C01AC019C018C017C016C015C014C03C
:1000100013C012C011C010C00FC00EC00DC07A387E
:1000200000DD02380000000011241FBECFE5D2E041
:10003000DEBFCDBF6ED0C9C0E3CF08C020E0000056
:1000400000002F5F2C30D9F7000001970097B1F71F
:1000500008951ABC13BE88B3856088BB88E10FB6CB
:10006000F89481BD11BC0FBE88EE93E0E6DF80E31B
:1000700085BF88950895CF93DF939C01EB0112BE55
:1000800018BE442329F082E48ABD81E083BF01C009
:10009000C098C901D2DF1ABC13BEC09ACE01CDDF11
:1000A000DF91CF910895C29888EB9BE0C6DFC29A9A
:1000B0000895F9DF88E99AE3C0DFF5DF88E99AE37C
:1000C000BCDFF1DF88E99AE3B8DFEDDF08951F9325
:1000D000182F04C0A89588E99AE3AFDFE4DF115038
:1000E000C9F7A8951F9108950F931F93082F10E04B
:1000F0000BC0C29880E593ECA0DFA895C29A80E57A
:1001000093EC9BDFA8951F5F101798F31F910F9139
:100110000895FF920F931F9310BE1ABC13BE84B7AD
:1001200014BE98E191BD11BC95E097BB98BB82FFCE
:1001300003C082E0D9DF8DDF88E893E17EDF29E22A
:1001400088E190E00FB6F894A89581BD0FBE21BD5F
:10015000A895A9DFEEE1F0E0E491E8BD88B589BD9E
:10016000FF242F2D30E0220F331F220F331FF90100
:10017000E15EFF4F85919491F901EF5DFF4F05918D
:100180001491B80141E077DFF394012B51F7C09A45
:1001900088EA91E652DF88E10FB6F89481BD11BC80
:1001A0000FBE8CED9FEF49DF84DF10BE13BEC29AF5
:1001B000C09A88EE93E041DF80E385BF889580E0B8
:0E01C00090E01F910F91FF900895F894FFCFEB
:00000001FF
